:100000000C94AF000C94D7000C94D7000C94D7003C
:100010000C94D7000C94D7000C94D7000C94D70004
:100020000C94D7000C94D7000C94D7000C94D700F4
:100030000C94D7000C94D7000C94D7000C94D700E4
:100040000C940F180C94D7000C94D4130C94AE138A
:100050000C94D7000C94D7000C94D7000C94D700C4
:100060000C94D7000C94D7003B1A3E1A411A441A3C
:10007000A81A4D1A501A5B1A5B1A5E1A691A6C1A82
:100080006F1ABB1A721A721A751AE31AE31A781ADF
:10009000951A7B1AE31A841AB61A8F1A921A951AAD
:1000A000951A981AA51ABB1ABB1AB61AB61AA51A27
:1000B000B61AA81AAB1AB61AAE1AB31AB61AB61AE4
:1000C000BB1AE31AE31AE31AE31AE31AE31AE31A70
:1000D000E31AE31AE31AE31AE31AE31AE31AE31A38
:1000E000E31AE31AE31AE31AE31AE31AE31AE31A28
:1000F000E31AE31AE31AE31AE31AE31AE31AE31A18
:10010000E31AE31AE31AE31AE31AE31AE31AE31A07
:10011000E31AE31AE31AE31AE31AE31AE31AE31AF7
:10012000E31AE31AE31AE31AE31AE31AE31AE31AE7
:10013000E31AC21AC51AC81ACD1AD21AD91A05A8B2
:100140004CCDB2D44EB93836A9020C50B99186883C
:10015000083CA6AAAA2ABE000000803F6D241124F4
:100160001FBECFEFD8E0DEBFCDBF11E0A0E0B1E011
:10017000E0E9F1E502C005900D92A637B107D9F785
:1001800024E0A6E7B1E001C01D92A936B207E1F76D
:1001900010E0CFEAD0E004C02197FE010E94E625DE
:1001A000CE3AD107C9F70E9459180C94C6280C946E
:1001B0000000CF93DF9300D000D000D0CDB7DEB7E2
:1001C000AB011C821D821E82DC01ED91FC9101902D
:1001D000F081E02D19821A821B829E012F5F3F4F12
:1001E000BE016C5F7F4F099526960FB6F894DEBF6F
:1001F0000FBECDBFDF91CF910895FC018585968517
:10020000089580E090E008950E941214E8E1F3E080
:1002100080E090E046E09C012F5F3F4FC19711F0D6
:10022000C90102C080E090E0489FD001499FB00D15
:100230001124AD51BE4F8C91808312968C911297F0
:10024000818314968C918283C901339622333105C0
:1002500011F70E94D41560910D0170910E01072EC7
:10026000000C880B990B0C948E158091DD019091F8
:10027000DE010196863091052CF49093DE01809387
:10028000DD0104C01092DE011092DD018091DD01DC
:100290009091DE01009769F4E8E1F3E02EEA33E0A3
:1002A0008FEF80838183128233962E173F07C9F721
:1002B00066C09C012B7F2130310589F4E8E1F3E031
:1002C0002FEF208321831282339633E0EE3AF30737
:1002D000C1F710923C0310923D0310923E0382300E
:1002E000910519F084309105F1F4E8E1F3E04EEA6C
:1002F00053E02FEF20832183128233964E175F073E
:10030000C9F71092390310923A0310923B031092EE
:100310003C0310923D0310923E0310923F03109253
:10032000400310924103039751F5E8E1F3E02EEA10
:1003300033E08FEF80838183128233962E173F073D
:10034000C9F71092360310923703109238031092B7
:10035000390310923A0310923B0310923C0310921F
:100360003D0310923E0310923F03109240031092FF
:1003700041031092420310924303109244030E94DF
:10038000D41560910D0170910E01072E000C880BA1
:10039000990B0C948E15CF92DF92EF92FF920F93F0
:1003A0001F93CF93DF93E8E1F3E020E030E040E4F7
:1003B0009CE98FEF59EC62EE7BEFAAEFB4EFC1EF4F
:1003C000D0EE16ED0AEA0F2EF5ECFF2EF02D0F2ED3
:1003D000FFE8EF2EF02D0F2EF3E9DF2EF02D0F2E7C
:1003E000F9E2CF2EF02D2530310524F48083D1821F
:1003F000C28206C02A303105CCF48083F182E282C9
:100400002F5F3F4F33962233310569F70E94D41591
:1004100064E670E080E090E0DF91CF911F910F9152
:10042000FF90EF90DF90CF900C948E152F30310518
:1004300024F4808311830283E3CF2431310524F433
:100440008083C183D283DCCF2931310524F48083BA
:10045000A183B283D5CF2E31310524F480838183EB
:100460007283CECF233231051CF48083818305C093
:100470002832310524F4508361838283C1CF4083C5
:100480009183FBCF0E9412148091DF019091E001D3
:100490000196833091052CF49093E0018093DF0165
:1004A00004C01092E0011092DF018091DF01909171
:1004B000E0018130910569F082309105B1F0892B1E
:1004C00079F48FEF809318031092190310921A0396
:1004D00007C08FEF809318038093190380931A034A
:1004E000A3EEB1E0E8E1F3E006C010921803109229
:1004F00019038FEFF3CF8C91838312968C9112970F
:10050000848314968C91149785831696339683E092
:10051000EB3AF80781F70E94D41560910D017091B4
:100520000E01072E000C880B990B0C948E151F934F
:10053000CF93DF93C8E1D3E01FEF64E670E080E083
:1005400090E00E949413633371056CF018831A8253
:100550001982239683E0CE3AD80779F7DF91CF91BD
:100560001F910C94D4151882F2CFCF93DF93809112
:10057000760190917701892B41F40E94970281E0E6
:1005800090E090937701809376010E941214E8E145
:10059000F3E0A3EEB1E020E030E066E07FEF21334E
:1005A000310539F0A9014F5F5F4F2115310519F46D
:1005B00005C040E050E0C901019702C081E390E02E
:1005C000689FE001699FD00D1124CD51DE4F099045
:1005D000D881C02D649FC001659F900D1124C53640
:1005E000D10584F0CD91DC911197C536D105D4F0B9
:1005F000EC01CD51DE4F888199818536910594F1CA
:10060000108230C0CD91DC911197C536D1050CF127
:10061000EC01CD51DE4F88819981853691055CF0E2
:10062000708309C0EC01CD51DE4F888199818536F8
:1006300091050CF01082649FE001659FD00D11249C
:10064000CD51DE4F8881998185369105C4F4708340
:1006500016C0EC01CD51DE4F888199818536910518
:100660000CF07083649FE001659FD00D1124CD5183
:10067000DE4F88819981853691050CF410822F5FB9
:100680003F4F339616962233310509F088CF0E94EA
:10069000D41560910D0170910E01072E000C880B8E
:1006A000990BDF91CF910C948E15E8E1F3E08083F4
:1006B00061834283339693E0EE3AF907C1F70895D8
:1006C0001F93DC01FB017C9111964C9111971296BE
:1006D0001C91972F9F71990F990F990F35E5292F2D
:1006E000239F020E20E0211D1124822F672F6074AA
:1006F000572F507277FD1FC061110AC0511103C0FE
:10070000922F909511C025E5280F90E08BEA34C018
:1007100051110DC0392F2AEA329F030E30E0311DEE
:1007200011249BEA931B280F892F90E025C090E0AD
:100730002095982F0FC0611112C051110DC0392F93
:100740002AEA329F030E30E0311D11242BEA231BCD
:1007500095E5930F80E010C0922F90950CC0511139
:1007600004C025E5280F9BEA04C02AEA280F90E080
:10077000932F981B822F20E04F3F09F427C044237A
:1007800011F1882331F0382F349F030E30E0311DF2
:10079000832F222321F0249F020E20E0211D992384
:1007A00031F0392F349F030E30E0311D932F112487
:1007B000342F3095339F030E30E0311D1124830F09
:1007C000230F930F03C09FEF2FEF8FEF1F3F09F40D
:1007D00024C030E0112321F0119F312D09F03F5F3B
:1007E0003323C1F0882331F0482F439F040E40E0AB
:1007F000411D842F222321F0239F020E20E0211D82
:10080000992331F0492F439F040E40E0411D942F5E
:10081000112403C090E020E080E080832183928354
:100820001F910895CF93DF9300D01F92CDB7DEB70D
:1008300064E670E080E090E00E9494132091000153
:100840003091780139832A836B3571051CF08FEF65
:100850008B8301C01B8268E173E0CE0101960E9488
:1008600060030E941214A3EEB1E0E8E1F3E08C9182
:10087000838312968C911297848314968C9114978B
:1008800085831696339683E0EB3AF80781F70E944A
:10089000D41560910D0170910E01072E000C880B8C
:1008A000990B0E948E150F900F900F90DF91CF91B2
:1008B00008954F925F926F927F928F929F92AF9224
:1008C000BF92CF92DF92EF92FF920F931F93CF933D
:1008D000DF9300D01F92CDB7DEB769E170E080E012
:1008E00090E00E9494132B013C016B0160E070E0EA
:1008F00000E010E099249A942EE4A22EB12C7B0102
:1009000083E0E80EF11C0C151D0584F580910001B3
:100910009091780199838A839B826D597C4FCE0197
:1009200001960E9460038091000190917801998363
:100930008A839B82B5016E197F09685E7C4FCE0168
:1009400001960E9460030E94D41580910D01909140
:100950000E01B6010E94D225072E000C880B990BC0
:100960000E948E150F5F1F4FB701C9CF7201EE0CA9
:10097000FF1CE40CF51C820160E070E098E4892E15
:10098000912C5B0183E0A81AB10810161106A4F59A
:10099000809100019091780199838A831B826E0D6A
:1009A0007F1D6D597C4FCE0101960E94600380919E
:1009B00000019091780199838A831B82B4016A199E
:1009C0007B096E197F09685E7C4FCE0101960E94FB
:1009D00060030E94D41580910D0190910E01B60123
:1009E0000E94D225072E000C880B990B0E948E15B1
:1009F00001501109B501C5CF0F900F900F90DF91F5
:100A0000CF911F910F91FF90EF90DF90CF90BF900B
:100A1000AF909F908F907F906F905F904F900895D0
:100A20007F928F929F92AF92BF92CF92DF92EF927E
:100A3000FF920F931F93CF93DF9300D01F92CDB7F8
:100A4000DEB70091DF011091E001C801019690939B
:100A5000E0018093DF012091780130917901C90193
:100A6000805B9F4FEFEFF0E0BF010E94D225782E10
:100A7000C90180569F4FBF010E94D225882E680170
:100A80008FE2C80ED11C015C1F4F32E3A32EB12CA4
:100A900099249A94C601B5010E94D2259C014096E2
:100AA000B5010E94D2257C018091000190917801CE
:100AB00099838A839B82B901660F771F620F731F28
:100AC000685E7C4FCE0101960E9460038091000118
:100AD00079828A839B82B701660F771F6E0D7F1D17
:100AE000685E7C4FCE0101960E94600380910001F8
:100AF00089828A839B82C7014096B5010E94D225D4
:100B0000BC01660F771F860F971FBC01685E7C4F84
:100B1000CE0101960E9460038FEFC81AD80A0C1507
:100B20001D0509F0B7CF0E94D41560910D01709199
:100B30000E01072E000C880B990B0E948E150F904A
:100B40000F900F90DF91CF911F910F91FF90EF9039
:100B5000DF90CF90BF90AF909F908F907F9008953F
:100B6000CF92DF92EF92FF920F931F93CF93DF9379
:100B700000D01F92CDB7DEB725E0E22EF12CDD24A8
:100B8000DA9408E113E08091000119828A83DB8204
:100B9000B801CE0101960E9460030D5F1F4F83E0F4
:100BA0000336180781F70E94D41560910D017091EA
:100BB0000E01072E000C880B990B0E948E1540E049
:100BC00050E060E070E080E090E00E9455030E94F9
:100BD000D41560910D0170910E01072E000C880B49
:100BE000990B0E948E1581E0E81AF10851F685E014
:100BF000E82EF12C90EAD92ECC24CA9400E010E023
:100C000080910001D9828A83CB82B8016D597C4FD3
:100C1000CE0101960E9460030D5F1F4F0B3411053A
:100C200079F70E94D41560910D0170910E01072E85
:100C3000000C880B990B0E948E1540E050E060E09C
:100C400070E080E090E00E9455030E94D41560910E
:100C50000D0170910E01072E000C880B990B0E945C
:100C60008E1581E0E81AF10849F60F900F900F9069
:100C7000DF91CF911F910F91FF90EF90DF90CF9078
:100C80000895CF93DF9300D01F92CDB7DEB762E314
:100C900070E080E090E00E9494137093E001609314
:100CA000DF016FEF70E080E090E00E94941370939A
:100CB000E2016093E10140E050E060E070E080E03C
:100CC00090E00E945503809100019091E101998389
:100CD0008A838FEF8B836091DF017091E001CB01FC
:100CE000880F991F680F791F685E7C4FCE010196AF
:100CF0000E9460030E94D41560910D0170910E0155
:100D0000072E000C880B990B0E948E150F900F90E8
:100D10000F90DF91CF910895DF92EF92FF920F93A2
:100D20001F93CF93DF9300D01F92CDB7DEB7809192
:100D3000DF019091E00101968A3191052CF49093A6
:100D4000E0018093DF0104C01092E0011092DF0106
:100D50002091E1013091E201809102019091030123
:100D6000820F931F8F3F910509F02CF49093E201BD
:100D70008093E10104C01092E2011092E101009120
:100D8000DF011091E001C8010E942D147C018091C7
:100D900000019091E10199838A83DD24DA94DB825A
:100DA000B801660F771F060F171FB801685E7C4FEA
:100DB000CE0101960E946003809100019091E101B3
:100DC00099838A83DB82B701660F771F6E0D7F1DC3
:100DD000685E7C4FCE0101960E9460030E94D4158C
:100DE00060910D0170910E01072E000C880B990B7C
:100DF0000E948E150F900F900F90DF91CF911F9151
:100E00000F91FF90EF90DF9008954F925F926F9255
:100E10007F928F929F92AF92BF92DF92EF92FF925A
:100E20000F931F93CF93DF93CDB7DEB727970FB6FE
:100E3000F894DEBF0FBECDBF63E270E080E090E0CB
:100E40000E9494137B0163E070E080E090E00E94D8
:100E50009413072E000C880B990B0E940F2724E592
:100E600033EE45EE5FE30E94F4252B013C0138E1AF
:100E7000832E33E0932EA12CB12C00E010E0DD2472
:100E8000DA94C701FF0CAA0BBB0B8C839D83AE8346
:100E9000BF83B801110F880B990B0E940F27A30184
:100EA00092010E94F4250E94D726F62E062F172FB6
:100EB00080910001F9828A83DB82B401CE01019620
:100EC0000E946003C5010E942D1420910001F98247
:100ED0002A83DB82BC01660F771F860F971FBC0138
:100EE000685E7C4FCE0101960E946003D09263033E
:100EF000D0926403D09265030E94D4156C817D81E9
:100F00008E819F810E948E159FEFA91AB90AA3E0D6
:100F10008A0E911CBAE1AB16B10409F0BACF27963C
:100F20000FB6F894DEBF0FBECDBFDF91CF911F91FA
:100F30000F91FF90EF90DF90BF90AF909F908F90B8
:100F40007F906F905F904F900895CF92DF92EF92D5
:100F5000FF920F931F93CF93DF9300D01F92CDB7D3
:100F6000DEB788E1E82E83E0F82E00E010E060E0D4
:100F700070E092E3C92ED12C669FC001679F900D4F
:100F8000900D1124681B790B072E000C880B990B10
:100F90000E940F2720E030E046E154EC0E946526D5
:100FA00020E030E04FE753E40E94C4270E94D72698
:100FB0006093DB017093DC018091000190917801D6
:100FC00099838A836B83B701CE0101960E946003E7
:100FD0000F5F1F4F0233110561F00A31110524F034
:100FE000B601601B710B01C0B80183E0E80EF11C73
:100FF000C3CF0E94D41560910D0170910E01072E90
:10100000000C880B990B0E948E150F900F900F907B
:10101000DF91CF911F910F91FF90EF90DF90CF90D4
:101020000895BF92CF92DF92EF92FF920F931F939A
:10103000CF93DF9300D01F92CDB7DEB780917601BA
:1010400090917701009759F481E090E090937701B7
:1010500080937601C090DF01D090E0011CC0019721
:10106000D1F410927701109276010091DF01109176
:10107000E001C8010E942D146C010F5F1F4F0A315F
:1010800011052CF41093E0010093DF0104C01092CD
:10109000E0011092DF0108E113E0E12CF12CBB2408
:1010A000BA94CE14DF0469F4809100019091780124
:1010B00099838A83BB82B801CE0101960E946003A6
:1010C00004C0F801108211821282FFEFEF1AFF0AAA
:1010D0000D5F1F4F82E3E816F10419F70E94D41543
:1010E00060910D0170910E01072E000C880B990B79
:1010F0000E948E150F900F900F90DF91CF911F914E
:101100000F91FF90EF90DF90CF90BF9008958F9256
:101110009F92AF92BF92EF92FF920F931F93CF9344
:10112000DF9300D01F92CDB7DEB708E113E08EEA5F
:10113000E82E83E0F82E2DEC3CEC4CEC5DE3609166
:10114000D7017091D8018091D9019091DA010E9464
:10115000F4254B015C0123EC35EF48E450E40E9498
:10116000BF2718164CF08092D7019092D801A09218
:10117000D901B092DA0108C01092D7011092D801BB
:101180001092D9011092DA016091D7017091D801C3
:101190008091D9019091DA010E94312820E030E05D
:1011A0004FE753E40E94C4270E94D7266093DB01D7
:1011B0007093DC01809100019091780199838A837A
:1011C0006B83B801CE0101960E9460030E94D41582
:1011D00060910D0170910E01072E000C880B990B88
:1011E0000E948E150D5F1F4FE016F10609F0A3CF88
:1011F0000F900F900F90DF91CF911F910F91FF9063
:10120000EF90BF90AF909F908F900895BF92CF9234
:10121000DF92EF92FF920F931F93CF93DF9300D053
:101220001F92CDB7DEB78091DF019091E00101966A
:10123000833391052CF49093E0018093DF0104C087
:101240001092E0011092DF018091DF019091E001A6
:1012500069E170E0681B790B77FF03C071956195B8
:1012600071098AE090E00E94D2258AE0869F800181
:10127000879F100D11240A3011053CF0053F81E0D5
:1012800018072CF004EF11E002C00AE010E088E13A
:10129000E82E83E0F82EC12CD12CBB24BA94809187
:1012A000DF019091E0018C159D0559F480910001BA
:1012B00019828A83BB82B701CE0101960E94600326
:1012C00004C0F701108211821282FFEFCF1ADF0AE9
:1012D00083E0E80EF11CE2E3CE16D10401F70E9490
:1012E000D415B801110F880B990B0E948E150F9021
:1012F0000F900F90DF91CF911F910F91FF90EF9082
:10130000DF90CF90BF9008958F929F92AF92BF923F
:10131000CF92DF92EF92FF920F931F93CF93DF93C1
:1013200000D01F92CDB7DEB73EE2E32EF12C42E3B0
:10133000C42ED12C2AE037ED43EA5CE36091D7015B
:101340007091D8018091D9019091DA010E94F42521
:101350004B015C0123EC35EF48E450E40E94BF27C9
:1013600018164CF08092D7019092D801A092D90122
:10137000B092DA0108C01092D7011092D8011092F1
:10138000D9011092DA016091D7017091D801809152
:10139000D9019091DA010E94312820E030E04FE736
:1013A00053E40E94C4270E94D726B62E6093DB0127
:1013B0007093DC01C701B6010E94D2259C014096C2
:1013C000B6010E94D2258C01809100019091780194
:1013D00099838A83BB82B901660F771F620F731FDF
:1013E000685E7C4FCE0101960E94600380910001EF
:1013F0009091780199838A83BB82B801660F771F29
:10140000600F711F685E7C4FCE0101960E946003E1
:10141000809100019091780199838A83BB82C801F1
:101420004096B6010E94D225BC01660F771F860F39
:10143000971FBC01685E7C4FCE0101960E9460033D
:101440008FEFE81AF80A86E3E816F10409F072CF84
:101450000E94D41560910D0170910E01072E000CB1
:10146000880B990B0E948E150F900F900F90DF91B3
:10147000CF911F910F91FF90EF90DF90CF90BF9091
:10148000AF909F908F900895CF93DF9300D01F92DD
:10149000CDB7DEB70E9412146FEF70E080E090E0ED
:1014A0000E94941369838FEF8A838B8368E173E0D2
:1014B000CE0101960E946003A3EEB1E0E8E1F3E003
:1014C0008C91838312968C911297848314968C91BD
:1014D000149785831696339683E0EB3AF80781F7E5
:1014E0000E94D41560910D0170910E01072E000C21
:1014F000880B990B0E948E150F900F900F90DF9123
:10150000CF910895DF92EF92FF920F931F93CF93A5
:10151000DF9300D01F92CDB7DEB78091DF019091AD
:10152000E00101968A3191052CF49093E0018093BB
:10153000DF0104C01092E0011092DF010091DF0191
:101540001091E001C8010E942D147C018091DB0103
:101550009091DC010A968F3F910509F02CF490934D
:10156000DC018093DB0104C01092DC011092DB01EE
:10157000D090DB01809100019091780199838A835A
:10158000DB82B801660F771F060F171FB801685E70
:101590007C4FCE0101960E946003809100019091E2
:1015A000780199838A83DB82B701660F771F6E0DFE
:1015B0007F1D685E7C4FCE0101960E9460030E94F1
:1015C000D41560910D0170910E01072E000C880B4F
:1015D000990B0E948E150F900F900F90DF91CF9175
:1015E0001F910F91FF90EF90DF900895FF920F935E
:1015F0001F93CF93DF9300D01F92CDB7DEB78091BA
:10160000760190917701892B91F48091D501909189
:10161000D60101969093D6018093D5018F3F910515
:10162000DCF081E090E090937701809376018091E7
:10163000760190917701019779F48091D50190918D
:10164000D60101979093D6018093D501029724F497
:10165000109277011092760108E113E0FF24FA94CA
:101660008091D5019091780199838A83FB82B8019A
:10167000CE0101960E9460030D5F1F4F83E00E3A7A
:10168000180771F70E94D41560910D0170910E0139
:10169000072E000C880B990B0E948E150F900F904F
:1016A0000F90DF91CF911F910F91FF9008950F93AD
:1016B0001F93CF93DF9300D01F92CDB7DEB78091F9
:1016C000760190917701892B91F48091DB019091C3
:1016D000DC0101969093DC018093DB018F3F910543
:1016E000DCF081E090E09093770180937601809127
:1016F000760190917701019779F48091DB019091C7
:10170000DC0101979093DC018093DB01029724F4C4
:10171000109277011092760108E113E08091DB01CD
:10172000909100012091780129839A838B83B801DD
:10173000CE0101960E9460030D5F1F4F83E00E3AB9
:10174000180761F70E94D41560910D0170910E0188
:10175000072E000C880B990B0E948E150F900F908E
:101760000F90DF91CF911F910F9108958F929F92CB
:10177000AF92BF92CF92DF92EF92FF920F931F939F
:10178000CF93DF9300D01F92CDB7DEB76FEF70E03D
:1017900080E090E00E9494134B015C016AE570E0E8
:1017A00080E090E00E9494136B017C01B401990CDD
:1017B000880B990B16161706180619061CF40E94BA
:1017C000941303C060E070E0CB016A3071050CF542
:1017D00008E113E0809100019091780199838A8358
:1017E0008B82B801CE0101960E9460030D5F1F4FEE
:1017F00083E00E3A180771F70E94D415D701C6018D
:101800000A96A11DB11DBC01990F880B990B0E946E
:101810008E150F900F900F90DF91CF911F910F9128
:10182000FF90EF90DF90CF90BF90AF909F908F9000
:101830000895DF92EF92FF920F931F93CF93DF9360
:1018400000D01F92CDB7DEB78091DF019091E0010B
:101850000196823391052CF49093E0018093DF018F
:1018600004C01092E0011092DF012091DF0130915D
:10187000E0018901075E1F4F2931310534F0C801AD
:1018800062E370E00E94D2258C01E0907801F09034
:10189000790180910001E9828A83DD24DA94DB8278
:1018A000B901660F771F620F731F685E7C4FCE0110
:1018B00001960E94600320910001C70180569F4F4E
:1018C0006FEF70E00E94D22589832A83DB82B80102
:1018D000660F771F600F711F685E7C4FCE01019607
:1018E0000E9460030E94D41560910D0170910E0159
:1018F000072E000C880B990B0E948E150F900F90ED
:101900000F90DF91CF911F910F91FF90EF90DF909B
:1019100008958F929F92AF92BF92CF92DF92EF92F3
:10192000FF920F931F93CF93DF9300D01F92CDB7F9
:10193000DEB78091DF019091E0010196823391053D
:101940002CF49093E0018093DF0104C01092E00139
:101950001092DF01C090DF01D090E001560189E1D3
:10196000A80EB11C89E1C816D10434F0C50162E3A8
:1019700070E00E94D2255C018091780190917901FC
:1019800080569F4F6FEF70E00E94D225982E88E11D
:10199000E82E83E0F82E00E010E088248A94C01638
:1019A000D10631F48091000190917801998306C0AD
:1019B000A016B10631F48091000199828A838B824E
:1019C00003C019821A821B82B701CE0101960E94C0
:1019D00060030F5F1F4F83E0E80EF11C0233110517
:1019E000F1F60E94D41560910D0170910E01072E41
:1019F000000C880B990B0E948E150F900F900F9082
:101A0000DF91CF911F910F91FF90EF90DF90CF90DA
:101A1000BF90AF909F908F9008952F923F924F92DA
:101A20005F926F927F928F929F92AF92BF92CF926E
:101A3000DF92EF92FF920F931F93CF93DF9300D02B
:101A40001F92CDB7DEB78091760190917701892BF7
:101A5000C1F48091DF019091E0019C012F5F3F4F25
:101A60003093E0012093DF0122333105F9F421E0C6
:101A700030E030937701209376019093E0018093DA
:101A8000DF018091760190917701019779F480913F
:101A9000DF019091E00101979093E0018093DF01D5
:101AA000892B21F41092770110927601C090DF010A
:101AB000D090E00181E3C816D1044CF436018FEFD9
:101AC000681A780A81E36816710461F002C0612C1B
:101AD000712C53018FEFA81AB80A81E3A816B1043C
:101AE00041F002C0A12CB12C15018FEF281A380A41
:101AF00002C0212C312C1C141D042CF481E0C81AC6
:101B0000D10821F409C031E3C32ED12C460181E074
:101B1000881A910821F408C021E3822E912C240117
:101B200081E0481A510803C091E3492E512C88E105
:101B3000E82E83E0F82E00E010E08091DF01909124
:101B4000E0018017910741F48091000190917801A4
:101B500099838A838FEF29C00615170549F00A1566
:101B60001B0589F020163106C9F00C151D0541F43E
:101B7000809100019091780199838A8386E915C04C
:101B80000815190541F4809100019091780199831D
:101B90008A8380E50AC04016510649F4809100010D
:101BA0009091780199838A8384E18B8303C01982A1
:101BB0001A821B82B701CE0101960E9460030F5F5B
:101BC0001F4F83E0E80EF11C0233110509F0B5CF79
:101BD0000E94D41560910D0170910E01072E000C2A
:101BE000880B990B0E948E150F900F900F90DF912C
:101BF000CF911F910F91FF90EF90DF90CF90BF900A
:101C0000AF909F908F907F906F905F904F903F909C
:101C10002F900895DF92EF92FF920F931F93CF932F
:101C2000DF9300D01F92CDB7DEB7809176019091FF
:101C30007701892BC1F48091DF019091E0019C0133
:101C40002F5F3F4F3093E0012093DF0122333105B6
:101C5000F9F421E030E030937701209376019093FE
:101C6000E0018093DF0180917601909177010197E7
:101C700079F48091DF019091E00101979093E00168
:101C80008093DF01892B21F4109277011092760165
:101C900088E1E82E83E0F82E00E010E0DD24DA94FD
:101CA0008091DF019091E0018017910741F48091CC
:101CB00000019091780199838A83DB8203C01982A5
:101CC0001A821B82B701CE0101960E9460030F5F4A
:101CD0001F4F83E0E80EF11C0233110509F70E9443
:101CE000D41560910D0170910E01072E000C880B28
:101CF000990B0E948E150F900F900F90DF91CF914E
:101D00001F910F91FF90EF90DF900895CF93DF9395
:101D100000D01F92CDB7DEB762E370E080E090E0C4
:101D20000E9494137093E0016093DF016FEF70E005
:101D300080E090E00E949413CB016093E1019093C6
:101D4000E2019091000189839A838FEF8B836091E8
:101D5000DF017091E001CB01880F991F680F791F97
:101D6000685E7C4FCE0101960E9460030E94D415EC
:101D700060910D0170910E01072E000C880B990BDC
:101D80000E948E150F900F900F90DF91CF910895C4
:101D9000CF93DF9300D01F92CDB7DEB72091DF0144
:101DA0003091E0012F5F3F4F3093E0012093DF013E
:101DB0004091E1015091E201809102019091030173
:101DC000840F951F9093E2018093E1012233310546
:101DD00024F01092E0011092DF018F3F910529F06D
:101DE00024F01092E2011092E101809100019091A3
:101DF000E10199838A838FEF8B836091DF0170917A
:101E0000E001CB01880F991F680F791F685E7C4F36
:101E1000CE0101960E9460030E94D41560910D01CD
:101E200070910E01072E000C880B990B0E948E15E5
:101E30000F900F900F90DF91CF910895FF920F9325
:101E40001F93CF93DF9300D01F92CDB7DEB7809161
:101E5000E1019091E20101968F3F910509F02CF488
:101E60009093E2018093E10104C01092E20110928C
:101E7000E10108E113E0FF24FA94809100019091C0
:101E8000E10199838A83FB82B801CE0101960E9409
:101E900060030D5F1F4F83E00E3A180771F70E9431
:101EA000D41560910D0170910E01072E000C880B66
:101EB000990B0E948E150F900F900F90DF91CF918C
:101EC0001F910F91FF900895CF92DF92EF92FF92B2
:101ED0000F931F93CF93DF936C017A018B01C0E0C6
:101EE000D0E0CE15DF0581F0D8016D918D01D601CE
:101EF000ED91FC910190F081E02DC6010995892BAF
:101F000011F02196EECF7E01C701DF91CF911F9195
:101F10000F91FF90EF90DF90CF900895089580E0AB
:101F200090E00895FC01538D448D252F30E0842FDF
:101F300090E0821B930B541710F0CF9608950197F1
:101F40000895FC01918D828D981761F0828DDF01DB
:101F5000A80FB11D5D968C91928D9F5F9F73928F9C
:101F600090E008958FEF9FEF0895FC01918D828D91
:101F7000981731F0828DE80FF11D858D90E008955E
:101F80008FEF9FEF0895FC01918D228D892F90E0B6
:101F9000805C9F4F821B91098F739927089580EB76
:101FA00093E00E94C30F21E0892B09F420E0822FE7
:101FB0000895FC01848DDF01A80FB11DA35ABF4F06
:101FC0002C91848D90E001968F739927848FA68938
:101FD000B7892C93A089B1898C91837080648C938C
:101FE000938D848D981306C00288F389E02D80813B
:101FF0008F7D80830895EF92FF920F931F93CF936D
:10200000DF93EC0181E0888F9B8D8C8D981305C048
:10201000E889F989808185FD26C0F62E0B8D10E0B8
:102020000F5F1F4F0F731127E02E8C8DE8120CC02D
:102030000FB607FCFACFE889F989808185FFF5CFD3
:10204000CE010E94D90FF1CF8B8DFE01E80FF11D5B
:10205000E35AFF4FF0829FB7F8940B8FEA89FB8910
:10206000808180620AC09FB7F894EE89FF896083FF
:10207000E889F98980818370806480839FBF81E0D3
:1020800090E0DF91CF911F910F91FF90EF90089515
:10209000CF93DF93EC01888D8823C9F0EA89FB890F
:1020A000808185FD05C0A889B9898C9186FD0FC006
:1020B0000FB607FCF5CF808185FFF2CFA889B989DB
:1020C0008C9185FFEDCFCE010E94D90FE7CFDF9134
:1020D000CF91089580E090E0892B29F00E94CF0FE6
:1020E00081110C94000008950F931F93CF93DF93F9
:1020F000209113032F5F322F37703093130320FF8B
:1021000002C020E801C020E031FD2064347009F0F5
:102110002062205FFC01EC01239600E011E0648561
:10212000662331F070E0C8010E94D2256F5F01C0C4
:1021300060E06187322F369F030E30E0311D11249D
:10214000311102C0168202C031503683662311F06D
:10215000615061873196CE17DF0709F7DF91CF9184
:102160001F910F91089580E991E00895529A089582
:102170000F931F93CF93DF93CDB7DEB762970FB660
:10218000F894DEBF0FBECDBF8C01F901DC011C96B7
:102190008C917A8369835C834B835E834D839081CA
:1021A0009D8791819E8792819F87813029F4CE01FE
:1021B00001960E94741006C01C861B861A8619861A
:1021C00018861F8283E0888B1A8A198AD801ED91BC
:1021D000FC910484F585E02DBE016F5F7F4FC8013F
:1021E000099562960FB6F894DEBF0FBECDBFDF91A2
:1021F000CF911F910F9108950F931F93CF93DF936A
:10220000CDB7DEB762970FB6F894DEBF0FBECDBF75
:102210008C01F901DC011C968C917A8369835C83C3
:102220004B835E834D8390819D8791819E879281B0
:102230009F87813029F4CE0101960E94741006C058
:102240001C861B861A86198618861F82188A1A8A87
:10225000198AD801ED91FC910484F585E02DBE0129
:102260006F5F7F4FC801099562960FB6F894DEBF85
:102270000FBECDBFDF91CF911F910F9108950E94A6
:10228000C1284F925F926F927F928F92AF92BF92CE
:10229000CF92DF92EF920F931F93CF93DF933C0186
:1022A000EB010E946915F30127853089621B730BCE
:1022B0006A307105B0F3F894E881F9817BB17460FC
:1022C0006BB16B7F6BB9CA848F812C2D281B822F39
:1022D0002F83BF844A805B801D850C85DE841F5F51
:1022E0000F5FD3949E813885A984EB844181D2010C
:1022F00020E0C32F522F322F31814427889431118F
:10230000380F08F43FEF8195889410FD430F4795EF
:10231000889411FD430F4795889412FD430F47950C
:10232000889413FD430F4795889414FD430F4795F8
:10233000889415FD430F4795889416FD430F4795E4
:10234000889417FD430F47958894232F1111242F4C
:102350008C0D422F002C7BB900C000C047FF6BB929
:1023600030812227889400C0002C6BB93111390FBD
:1023700000C0002C7BB900C000C046FF6BB908F458
:102380003FEF9195889400C0002C6BB900FD230F9E
:1023900000C0002C7BB900C000C045FF6BB9279579
:1023A000889401FD230F00C0002C6BB927958894F9
:1023B00000C0002C7BB900C000C044FF6BB902FD17
:1023C000230F2795889400C0002C6BB903FD230FC1
:1023D00000C0002C7BB900C000C043FF6BB927953B
:1023E000889404FD230F00C0002C6BB927958894B6
:1023F00000C0002C7BB900C000C042FF6BB905FDD6
:10240000230F2795889400C0002C6BB906FD230F7D
:1024100000C0002C7BB900C000C041FF6BB92795FC
:10242000889407FD230F00C0002C6BB92795889472
:1024300000C0002C7BB900C000C040FF6BB9432F27
:102440000111422F9A0D00C0002C6BB900C000C0D2
:10245000002C7BB900C000C047FF6BB93281222736
:10246000889400C0002C6BB931113C0F00C0002CC7
:102470007BB900C000C046FF6BB908F43FEFEB0D1D
:10248000F11D00C0002C6BB9D0FC230F00C0002C44
:102490007BB900C000C045FF6BB927958894D1FC7B
:1024A000230F00C0002C6BB92795889400C0002C26
:1024B0007BB900C000C044FF6BB9D2FC230F279545
:1024C000889400C0002C6BB9D3FC230F00C0002CF3
:1024D0007BB900C000C043FF6BB927958894D4FC3A
:1024E000230F00C0002C6BB92795889400C0002CE6
:1024F0007BB900C000C042FF6BB9D5FC230F279504
:10250000889400C0002C6BB9D6FC230F00C0002CAF
:102510007BB900C000C041FF6BB927958894D7FCF8
:10252000230F00C0002C6BB92795889400C0002CA5
:102530007BB900C000C040FF6BB9432FD110422FC0
:10254000C19500C0002C6BB9CE0D00C000C07BB996
:1025500000C000C047FF6BB931812227889400C0BA
:10256000002C6BB93111380F00C0002C7BB900C0B2
:1025700000C046FF6BB908F43FEF8195889400C016
:10258000002C6BB910FD230F00C0002C7BB900C0DC
:1025900000C045FF6BB92795889411FD230F00C03B
:1025A000002C6BB92795889400C0002C7BB900C023
:1025B00000C044FF6BB912FD230F2795889400C01B
:1025C000002C6BB913FD230F00C0002C7BB900C099
:1025D00000C043FF6BB92795889414FD230F00C0FA
:1025E000002C6BB92795889400C0002C7BB900C0E3
:1025F00000C042FF6BB915FD230F2795889400C0DA
:10260000002C6BB916FD230F00C0002C7BB900C055
:1026100000C041FF6BB92795889417FD230F00C0B8
:10262000002C6BB92795889400C0002C7BB900C0A2
:1026300000C040FF6BB9432F1111422F8C0D00C019
:10264000002C6BB9119709F086CE20EE31E0D20153
:102650000E94EC25DC01CB01F4E0B695A795979597
:102660008795FA95D1F720E030E0B901EAE94E9E6E
:10267000040C611D5E9E600D711D1124650D711DA0
:10268000860F971FA11DB11D893E43E09407A10548
:10269000B10508F434C0885E9340A109B10942E055
:1026A000B695A795979587954A95D1F747E0849F6A
:1026B000080E211D949F200D311D1124290F311D5D
:1026C0006091120370E0860F971F820F931F409155
:1026D0001403509115036091160370911703292F6D
:1026E0003327420F531F611D711D409314035093F4
:1026F0001503609316037093170380931203789465
:102700000E946915F301708B6787DF91CF911F914C
:102710000F91EF90DF90CF90BF90AF908F907F9010
:102720006F905F904F900895CF92DF92EF92FF925B
:10273000611571058105910549F06B017C010E94CD
:10274000F424A70196010E944B2503C060E070E0CD
:10275000CB01FF90EF90DF90CF9008951F920F92E2
:102760000FB60F9211242F933F934F935F936F9364
:102770007F938F939F93AF93BF93EF93FF9380EBE0
:1027800093E00E94D90FFF91EF91BF91AF919F917C
:102790008F917F916F915F914F913F912F910F900A
:1027A0000FBE0F901F9018951F920F920FB60F92A9
:1027B00011242F938F939F93EF93FF93E091C00386
:1027C000F091C1038081E091C603F091C70382FDBF
:1027D00012C090818091C9038F5F8F732091CA03CB
:1027E000821751F0E091C903F0E0E055FC4F958F5E
:1027F0008093C90301C08081FF91EF919F918F91D8
:102800002F910F900FBE0F901F901895E8E1F3E005
:10281000808361834283339693E0EE3AF907C1F7F0
:102820000C94D415A8E1B3E0E3EEF1E08C9190E0D4
:102830009183808311968C91119790E0938382838A
:1028400012968C91129790E0958384831396369616
:1028500083E0EF30F80751F70895009751F0893180
:10286000910551F022E330E0A901481B590BCA0140
:10287000089580E090E0089589E190E0089585351D
:1028800058F4982F990F890F80930F0380958093A8
:1028900010031092110318C08A3A58F48555982FE6
:1028A000990F890F982F909590930F031092100312
:1028B00009C08A5A10920F03982F990F890F80939D
:1028C00010038095809311038FE093E00895CF93D8
:1028D000DF9340E050E060E070E080E090E00E9434
:1028E00055030E94D41583E290E090930E018093EB
:1028F0000D01C4E6D0E00E9441062197E1F70E9455
:10290000B0050E94B0050E94B0050E94B0050E946B
:10291000B00582E390E090930E0180930D01C4E630
:10292000D0E00E9410052197E1F740E050E060E020
:1029300070E080E090E00E9455030E94D41584E688
:1029400090E090930E0180930D0110927901109206
:102950007801CEE1D0E00E9459042197E1F740E0F0
:1029600050E060E070E080E090E00E9455030E943B
:10297000D4158EE190E090930E0180930D018FE5C8
:1029800090E09093790180937801CAEFD0E00E94A3
:1029900012042197E1F740E050E060E070E080E051
:1029A00090E00E945503DF91CF910C94D4150F93C2
:1029B0001F93CF93DF9300D01F92CDB7DEB78091E6
:1029C000E1019091E20101979093E2018093E1018E
:1029D00089838FEF8B8380EF8A8308E113E0B8014E
:1029E000CE0101960E94600389818B5F89830D5F10
:1029F0001F4F83E00E3A180791F70E94D41560919B
:102A00000D0170910E01072E000C880B990B0E948E
:102A10008E150F900F900F90DF91CF911F910F9116
:102A200008950E941214E8E1F3E080E090E041E3B1
:102A300050E066E0649FD001659FB00D1124AD5158
:102A4000BE4F2C91208312962C91129721831496BD
:102A50002C9122839C012F5F3F4F2233310521F0BF
:102A60003396AC01C901E6CF0E94D41560910D01E7
:102A700070910E01072E000C880B990B0C948E158B
:102A8000009769F0FC0101900020E9F73197AF0150
:102A9000481B590BBC0180EB93E00C94640F80E061
:102AA00090E008958E3008F08E5087708064809397
:102AB0007C0080917A00806480937A0080917A0013
:102AC00086FDFCCF809178002091790090E0922BD8
:102AD00008953FB7F89480915B0490915C04A091B5
:102AE0005D04B0915E0426B5A89B05C02F3F19F088
:102AF0000196A11DB11D3FBFBA2FA92F982F88277E
:102B0000820F911DA11DB11DBC01CD0142E0660FD8
:102B1000771F881F991F4A95D1F708958F929F922A
:102B2000AF92BF92CF92DF92EF92FF926B017C0146
:102B30000E9469154B015C01C114D104E104F10448
:102B4000F1F00E946915DC01CB0188199909AA09E5
:102B5000BB09883E9340A105B10570F321E0C21A7C
:102B6000D108E108F10888EE880E83E0981EA11CC8
:102B7000B11CC114D104E104F10419F7DDCFFF90B9
:102B8000EF90DF90CF90BF90AF909F908F9008957F
:102B90002FB7F89460911403709115038091160378
:102BA000909117032FBF08953F924F925F926F92BB
:102BB0007F928F929F92AF92BF92CF92DF92EF92CD
:102BC000FF920F931F93CF93DF9300D01F92CDB747
:102BD000DEB7F0904D048091500490915104A09183
:102BE0005204B0915304892B8A2B8B2BE9F00E945D
:102BF0006915009165041091660420916704309175
:102C00006804DC01CB01801B910BA20BB30B00917C
:102C100050041091510420915204309153048017B4
:102C20009107A207B307B8F20E9469156093650483
:102C3000709366048093670490936804E09158044D
:102C4000F0915904309759F0409154045091550433
:102C500060915604709157048F2D0995F82E0091BC
:102C6000AE031091AF034F2C512C612C712C011528
:102C7000110509F45FC0D8011C96EC901C97809157
:102C80004E0490914F048436910510F41C961C92CA
:102C9000D801ED91FC91A280B38019821A821B8227
:102CA000F11014C0F80145855685628173819E013B
:102CB0002F5F3F4FC801F5010995D8011C96EC9292
:102CC0001C9714960D911C911597D1CFF80136964B
:102CD000CE0101966C01480199E0890E911C219169
:102CE000222309F132803320F1F0822F90E0A0E01E
:102CF000B0E09C01AD012F5F3F4F4F4F5F4FC301CD
:102D0000B2010E94AE259B01AC01832D90E0A0E0B2
:102D1000B0E0BC01CD016F5F7F4F8F4F9F4F0E948E
:102D2000AE25D6018C93BFEFCB1ADB0AE815F90567
:102D3000B1F6B8CF80916304909164048C010F5F69
:102D40001F4F109364040093630449979CF10E9401
:102D5000C8154B015C0188EE93E0089FB001099F04
:102D6000700D189F700D1124072E000C880B990B05
:102D7000C0905F04D0906004E0906104F090620421
:102D8000A50194012C193D094E095F090E947D257A
:102D900030934F0420934E04109264041092630405
:102DA0000E94C81560935F0470936004809361046F
:102DB000909362040F900F900F90DF91CF911F912D
:102DC0000F91FF90EF90DF90CF90BF90AF909F90CA
:102DD0008F907F906F905F904F903F900895CF922B
:102DE000DF92EF92FF920F931F93CF93DF936C01CB
:102DF000C7E5D3E004E513E089E1F82EEE24EA9478
:102E000040E060E080E00E940614F88219821A8295
:102E1000FE0188E090E0E3821482158201973396E8
:102E20000097C9F7FB8E1C8E1D8EF801F38E148E51
:102E3000158E789688E090E0E082118212820197E8
:102E400033970097C9F7F801F082118212820E942D
:102E5000D4156AE070E080E090E00E948E15239720
:102E60000D5F1F4FF3E0C531DF0751F6B601DD0CF2
:102E7000880B990BDF91CF911F910F91FF90EF90ED
:102E8000DF90CF900C948E15CF92DF92EF92FF924D
:102E90000F931F93CF93DF936C01C8E1D3E003E955
:102EA00013E089E1F82EEE24EA9440E060E080E04F
:102EB0000E940614F88219821A82FE0188E090E0CE
:102EC000E38214821582019733960097C9F7FB8E2F
:102ED0001C8E1D8EF801F38E148E158E789688E068
:102EE00090E0E08211821282019733970097C9F730
:102EF000F801F082118212820E94D4156AE070E01B
:102F000080E090E00E948E15239603501109F3E0B3
:102F1000CA35DF0751F6B601DD0C880B990BDF913E
:102F2000CF911F910F91FF90EF90DF90CF900C9475
:102F30008E15EF92FF920F931F93CF93DF938C0127
:102F4000C8E1D3E089E1F82EEE24EA9440E060E0A5
:102F500080E00E940614F88219821A82FE0188E03D
:102F600090E0E38214821582019733960097C9F7A7
:102F7000FB8E1C8E1D8E0E94D4156AE070E080E0EE
:102F800090E00E948E15239683E0C039D807F1F6B1
:102F9000B801110F880B990BDF91CF911F910F9101
:102FA000FF90EF900C948E15EF92FF920F931F936A
:102FB000CF93DF938C01C0E9D3E089E1F82EEE24B2
:102FC000EA9440E060E080E00E940614F8821982F2
:102FD0001A82FE0188E090E0E38214821582019754
:102FE00033960097C9F7FB8E1C8E1D8E0E94D41558
:102FF0006AE070E080E090E00E948E15239783E005
:10300000C831D807F1F6B801110F880B990BDF9181
:10301000CF911F910F91FF90EF900C948E151F92FE
:103020000F920FB60F9211242F933F938F939F937C
:10303000AF93BF938091140390911503A091160351
:10304000B091170330915A0423E0230F2D3720F459
:103050000196A11DB11D05C026E8230F0296A11DF2
:10306000B11D20935A048093140390931503A093E9
:103070001603B093170380915B0490915C04A091B8
:103080005D04B0915E040196A11DB11D80935B04A7
:1030900090935C04A0935D04B0935E04BF91AF91E4
:1030A0009F918F913F912F910F900FBE0F901F9086
:1030B0001895CF93DF93CDB7DEB7C755D1090FB6BB
:1030C000F894DEBF0FBECDBF789484B5826084BD16
:1030D00084B5816084BD85B5826085BD85B581601C
:1030E00085BD80916E00816080936E00109281009A
:1030F0008091810082608093810080918100816055
:103100008093810080918000816080938000809115
:10311000B10084608093B1008091B00081608093A1
:10312000B00080917A00846080937A0080917A0068
:10313000826080937A0080917A00816080937A0027
:1031400080917A00806880937A001092C100E091AB
:10315000C003F091C10382E08083E091BC03F09151
:10316000BD031082E091BE03F091BF038FEC80831A
:103170001092C803E091C403F091C50386E08083F8
:10318000E091C203F091C303808180618083E0916C
:10319000C203F091C303808188608083E091C20301
:1031A000F091C303808180688083E091C203F09135
:1031B000C30380818F7D80838FEF80934D04909136
:1031C0008D01911144C010927F0110927E01809375
:1031D0008201809383018093840180938501809391
:1031E00086018093870181E08093880110928A0193
:1031F0001092890110928101109280018091AE039A
:103200009091AF03892B31F48CE791E09093AF0359
:103210008093AE03E0917A01F0917B01309721F029
:103220008CE791E0958384838CE791E090937B0118
:1032300080937A0110928C0110928B0189E291E0C7
:1032400090937D0180937C0181E080938D01529A5F
:1032500088E193E090937F0180937E0182E390E088
:1032600090938A0180938901809150049091510438
:10327000A0915204B0915304843C29E09207A10527
:10328000B10520F484EC99E0A0E0B0E08093500414
:1032900090935104A0935204B093530440E050E043
:1032A00060E070E080E090E00E9455030E94D41539
:1032B00080E00E945215BC01990F880B990B611593
:1032C00071058105910511F00E94422532E3232EFC
:1032D000312C0E94C8150091D1011091D20120918A
:1032E000D3013091D401DC01CB01801B910BA20BE7
:1032F000B30B853F9140A105B10508F444C00E947D
:10330000C8156093D1017093D2018093D30190933B
:10331000D40186E00E945215092E000CAA0BBB0BAB
:103320009C01AD012851314041095109ACEFB0E099
:103330000E946A2520E431E040E050E00E944B25E5
:10334000DA01C9010396A11DB11D9093D0018093AC
:10335000CF018F3F910539F034F08FEF90E09093DB
:10336000D0018093CF018091CF019091D00197FF40
:1033700006C083E090E09093D0018093CF018091CC
:10338000CF0180934D040E94C8150091CB0110918C
:10339000CC012091CD013091CE01DC01CB01801B0D
:1033A000910BA20BB30B0091C7011091C8012091A2
:1033B000C9013091CA01081719072A073B0708F00D
:1033C0001CC168E97AE380E090E00E949413DC017C
:1033D000CB0188579C4EAF4FBF4F8093C70190934E
:1033E000C801A093C901B093CA016EE170E080E00A
:1033F00090E00E949413FB01E95CFE4F1081E12EE6
:10340000F12CF0921001E0920F0188E691E00E9409
:103410004015212F30E040E050E019A28E010F5DF1
:103420001F4F49015A01CA01B9012AE030E040E0CA
:1034300050E00E947D25605DD8016E938D012115BD
:1034400031054105510579F7CD010E94401583E70B
:1034500091E00E944015EFEFF0E0F0930101E0935E
:103460000001FBE68F16910408F0ADC0F401EC5C9E
:10347000FF4F0C94E62540E050E08CC04FEF50E049
:103480008EC08CE390E079C084E190E090930E01CF
:1034900080930D018AE090E03DC084E190E002C09D
:1034A00080E590E090930E0180930D0110927901D8
:1034B0001092780188C088E290E0F4CF80EA90E032
:1034C000909379018093780130920101209200015C
:1034D0007AC08FE090E0E6CF8EE190E0E3CF8CE31E
:1034E00090E00BC080E590E048C08CE390E022C003
:1034F00083E290E002C084E690E090930E01809316
:103500000D0184EB90E01CC030920E0120920D0161
:103510008FE090E0909303018093020154C083E216
:1035200090E02BC089E190E0BDCF84E690E0BACF77
:1035300084E690E090930E0180930D018FE590E07A
:1035400090937901809378013EC08FE090E015C0A0
:1035500084E190E012C08AE090E00FC010920E016A
:1035600010920D0130C08EE190E007C030920E0144
:1035700020920D0128C084E690E090930E01809384
:103580000D0121C040E050E016C040E050E00CC00A
:103590004FEF50E060E070E009C040E050E06FEFB6
:1035A00070E00BC04FEF50E06FEF70E080E090E014
:1035B00006C04FEF50E060E070E08FEF90E00E94B7
:1035C00055030E94D415109277011092760140E0C5
:1035D00050E060E070E080E090E00E945503F092DF
:1035E0001001E0920F010E94C8156093CB01709307
:1035F000CC018093CD019093CE0180910F019091E9
:1036000010018931910509F48FC10CF084C08D300F
:10361000910509F46FC10CF03FC08730910509F4A2
:1036200059C1ECF48430910509F44CC164F4823042
:10363000910509F443C1039711F00C9449240E94A9
:10364000C80E0C9449248530910509F43FC10697B2
:1036500011F00C9449240E940D0D0C9449248A30D9
:10366000910509F43FC164F48830910509F436C12D
:10367000099711F00C9449240E94B60B0C9449242C
:103680008B30910509F432C10C9711F00C94492448
:103690000E94820A0C9449248331910509F438C1AF
:1036A000ECF48031910509F42DC164F48E3091055C
:1036B00009F424C10F9711F00C9449240E9442028E
:1036C0000C9449248131910509F41FC1429711F0EE
:1036D0000C9449240E94CB010C9449248631910515
:1036E00009F41CC164F48431910509F414C14597AF
:1036F00011F00C9449240E94A5070C9449248731A9
:10370000910509F40EC1489711F00C9449240E94C8
:1037100035010C9449248532910509F472C20CF0EC
:1037200063C08F31910509F40BC1ECF48C31910524
:1037300009F400C164F48A31910509F4F8C04B978B
:1037400011F00C9449240E9410050C9449248D31E9
:10375000910509F4F2C04E9711F00C9449240E948F
:10376000D7140C9449248232910509F420C1B4F491
:103770008032910509F4E7C0819711F00C94492437
:1037800080900D0190900E0108E113E07801DD2496
:10379000DA94092C000CAA08BB08D8C08332910522
:1037A00009F476C1849711F00C94492400910D011D
:1037B00010910E01C8010E94D417C8010E949917E8
:1037C000C8010E944417C8010E94EF16C8010E9458
:1037D0009917C8010E94D417C8010E944417C80154
:1037E0000E94EF160C9449248B32910509F46DC3A5
:1037F00094F58832910509F4D5C29CF4863291057E
:1038000009F433C2879711F00C94492480900D017C
:1038100090900E01E12CF12C092C000CAA08BB0899
:10382000BBC28932910509F4E6C28A9711F00C9463
:10383000492480900D0190900E019AE0E92EF12C20
:1038400021E2C22E23E0D22E77247A94092C000C98
:10385000AA08BB0837C38E32910509F4E6C404F503
:103860008C32910509F47DC38D9711F00C94492495
:10387000DE0111967D01FE01BE966F019E012A5B5D
:103880003F4F5901CE0182964C0100E010E088E0E4
:10389000482E8EEB582E8DE8682E80E4782E89C352
:1038A000883723E0920709F412C68937934011F054
:1038B0000C9449240E9467140C9449240E941E0F02
:1038C0000C9449240E94860E0C9449240E940A0EEE
:1038D0000C9449240E94890C0C9449240E94190CD0
:1038E0000C9449240E94570B0C9449240E94F60A18
:1038F0000C9449240E94B5020C9449240E94440A65
:103900000C9449240E948409C4C70E940609C1C7B7
:103910000E948708BEC70E941108BBC70E94050706
:10392000B8C70E948C06B5C70E944106B2C70E9464
:10393000B005AFC70E945904ACC70E941204A9C7C2
:103940000E941115A6C70E940401A3C7D7011C92AB
:103950001196DC92119712961C920E94D415C50103
:10396000B4010E948E15B3E0EB0EF11CEEEAEE16E8
:10397000E3E0FE0659F7C0900D01D0900E010D2C2A
:10398000000CEE08FF08D8011C9211961C921197AA
:1039900012961C920E94D415C701B6010E948E1582
:1039A0000D5F1F4FB3E00E3A1B0769F772C7C09057
:1039B0000D01D0900E0198E1A92E93E0B92E0CE9EB
:1039C00013E0750129E1922E88248A9440E060E09A
:1039D00080E00E940614F70190821182128281E039
:1039E00090E083821482158201963396853091058A
:1039F000C1F7D7011F969C921F9750961C92509723
:103A000051961C920E94D4156AE070E080E090E02C
:103A10000E948E15B3E0EB0EF11C0E151F05B1F6DA
:103A20000D2C000CEE08FF08C701B6010E948E1590
:103A300089E1982E88248A9440E060E080E00E942A
:103A40000614F80190821182128281E090E0838254
:103A5000148215820196339685309105C1F7D801FD
:103A60001F969C921F9750961C92509751961C92AD
:103A70000E94D4156AE070E080E090E00E948E150C
:103A800003501109A016B106B9F6C701B601FFC669
:103A900060900D0170900E0115E9E12E11E0F12EFC
:103AA00007ECC02E01E0D02E87016DE070E080E0D1
:103AB00090E00E949413F8014081242F30E02617F3
:103AC000370714F4108203C0842F861B80830F5F96
:103AD0001F4FC016D10649F7E5ECF1E023E030E0D6
:103AE0008081429190E0840F911D840F911DB90156
:103AF0000E94D2256283EE16FF0691F70E94F424FD
:103B00002FEF30E040E050E00E944B256837710510
:103B100081059105ECF40E94F42427E030E040E0B8
:103B200050E00E944B258B010B561E4FF801D080B0
:103B30006FE570E080E090E00E949413DC01CB011F
:103B400080569F4FAF4FBF4F6D2D680FD8016C93BC
:103B500008E113E0DD24DA94F70161917F0170E060
:103B600080E090E00E940F2720E030E04FE753E430
:103B70000E94652620E030E04FE353E40E94C42712
:103B80004B015C0120E030E0A9010E94BF2720E04A
:103B900030E040E05FE387FD05C0C501B4010E944D
:103BA000F42504C0C501B4010E94F3250E94D72664
:103BB000862F880F880F613840F0D801DC9211966B
:103BC000DC92119712968C930EC0613428F0F801A4
:103BD000D0828183128207C0D8018C9311961C92E7
:103BE000119712961C920D5F1F4FB3E00E3A1B0700
:103BF00009F0B2CF0E94D415B301770C880B990B52
:103C000046C680900D0190900E01E12CF12C092CFC
:103C1000000CAA08BB0808E113E0C12CD12CC60196
:103C200062E370E00E94BE25862F8E0D0E943F1435
:103C3000FC01828191812081F8012083918382831C
:103C4000D3940D5F1F4FC11422E3D20641F70E94A7
:103C5000D415C501B4010E948E153FEFE31AF30A93
:103C6000E11485E0F806B9F614C600910D01109133
:103C70000E0140E060E080E00E940614B4E1EB2E0B
:103C8000F12C4801110FAA08BB086FEF70E080E02B
:103C900090E00E949413162F6FEF70E080E090E0A8
:103CA0000E949413062F6FEF70E080E090E00E9476
:103CB0009413D62E0E94F42422E330E040E050E03A
:103CC0000E944B25FB01EE0FFF1F6E0F7F1FFB01B4
:103CD000E85EFC4FD082018312830E94D415C50197
:103CE000B4010E948E1540E060E080E00E9406145E
:103CF00091E0E91AF10849F6C501B401C8C5B70158
:103D00006C0D7D1D072E000C880B990B0E940F2750
:103D10000E94312820E030E04EEF52E40E94C42798
:103D200020E030E040E053E40E94F42520E030E061
:103D30004FE753E40E9465262B013C0120E030E070
:103D40004FE753E40E94C4270E94DE26D8016C93FB
:103D500011966C9320E030E0A901C301B2010E94EA
:103D6000C4270E94DE26F8016283FFEFCF1ADF0A24
:103D70000D5F1F4F23E3C216D10409F60E94D4152C
:103D8000C501B4010E948E153FEFE31AF30A84E6E1
:103D9000E816F10409F47DC508E113E0CC24C394CE
:103DA000D12CADCFE0900D01F0900E010E94F424D3
:103DB00022E330E040E050E00E944B258B01000FF1
:103DC000111F600F711F8B01085E1C4F8FEFD80110
:103DD0008C9311968C93119712968C930E94D41504
:103DE000B701FF0C880B990B0E948E15F801108209
:103DF000118212824EC564E873E080E090E00E9478
:103E000094134B015C01E0900D01F0900E0140E134
:103E100060E180E10E9406140E94F42422E330E075
:103E200040E050E00E944B258B01000F111F600FF6
:103E3000711F8B01085E1C4F8FEFD8018C93119678
:103E40008C93119712968C930E94D415B701FF0C96
:103E5000880B990B0E948E1580E1F8018083818385
:103E600082830E94D415D501C4018C599F4FAF4F56
:103E7000BF4FBC01990F880B990B09C5F80181E16F
:103E800090E0708211821282019739960097C9F7EB
:103E90000E94D415C501B4010E948E15F80181E17C
:103EA00090E0108211821282019739960097C9F72B
:103EB0000D5F1F4FC016D10609F7F1E0EF1AF108A8
:103EC00009F4E7C408E113E0D9CF40900D01509008
:103ED0000E01C12CD12C052C000C6608770808E1D6
:103EE00013E07801A12CB12CC5018C0D9D1D6FEF45
:103EF00070E00E94D2250E943F14FC0182819181D2
:103F00002081D7012C9311969C93119712968C9334
:103F1000B3E0AB0EB11CE9E0EE0EF11CF3E3AF161B
:103F2000B10411F70E94D415C301B2010E948E158D
:103F3000F80181E190E01082118212820197399696
:103F40000097C9F70D5F1F4F23E00132120749F6B2
:103F50003FEFC31AD30AC11481E0D80609F0BFCFDE
:103F600098C4C0900D01D0900E010AE010E00D2C15
:103F7000000CEE08FF084FEF6FEF8FEF0E94061462
:103F80000E94D415C701B6010E948E1540E060E082
:103F900080E00E9406140E94D415C701B6010E9459
:103FA0008E150150110939F768EE73E080E090E05A
:103FB0006EC40E94C815D4016D937D938D939D931B
:103FC0004D01F501119211925F01D6014D925D9262
:103FD0006D927D926D01B801012E000C880B990B3A
:103FE0000E940F2720E030E040E151E40E94652666
:103FF0009B01AC0166E676E686E69FE30E94F32528
:10400000F70161937193819391937F010F5F1F4F2C
:104010000330110571F62E01FEE24F0E511C9E0178
:10402000245B3F4F2E963FAF2EAF2E978E01065C3E
:104030001F4FCE01019660969FAF8EAF6097DE0155
:10404000AA5BBF4F6296BFAFAEAF6297FE01BE964E
:104050003F019E012E5D3F4F19010E94C815D101FD
:10406000CD90DD90ED90FC906C197D098E099F0933
:104070000E940D274B015C0120E030E04AE754E448
:104080000E946526F301C080D180E280F3809B010D
:10409000AC010E94C42723EC35EF4CE950EC0E94A0
:1040A000C42768966CAF7DAF8EAF9FAF6897A701AE
:1040B0009601C501B4010E94C42720E030E04AE720
:1040C00054E40E9465269B01AC0168966CAD7DAD01
:1040D0008EAD9FAD68970E94F4255801D8016D936D
:1040E0007D938D939C93139720E030E0A9010E946B
:1040F000602687FF33C0F80110821182128213827A
:104100006096AEADBFAD60972D913D914D915C91A4
:10411000C701B6010E94C4276B017C01F3016083D3
:104120007183828393830E94C815D1016D937D931F
:104130008D939C9313972AE037ED43E25CE3C7012C
:10414000B6010E94602687FFA8C388E09EEBADE819
:10415000B0E4F30180839183A283B3830C5F1F4F8C
:1041600020E030E044E452E4D5016D917D918D91E1
:104170009C910E94C4276B017C014B015C0120E0F3
:1041800030E0A9010E94BF2787FD09C020E030E090
:1041900040E05FE3B401C5010E94F42508C020E0BF
:1041A00030E040E05FE3B601C7010E94F3250E94C2
:1041B000D7266296EEADFFAD6297619371936296DA
:1041C000FFAFEEAF6297F4E02F0E311C24E0620ED9
:1041D000711C60968EAD9FAD6097049660969FAF00
:1041E0008EAF60974214530409F037CFDE01AA5B0B
:1041F000BF4FED91FD91CF01880F991FE80FF91F77
:10420000E85EFC4F9FEF9083118212822E96EEADF6
:10421000FFAD2E97AE17BF0761F70E94D41540E09F
:1042200060E080E00E94061401CF9E012F5F3F4FA7
:104230007901CE018E966C01DE01AA5BBF4F5D0154
:10424000FE01B2964F0100E010E0F8E04F2EFEEBC9
:104250005F2EFDE86F2EF0E47F2E0E94C815D4017A
:104260006D937D938D939D934D01F5011192119264
:104270005F01D6014D925D926D927D926D01B80104
:10428000012E000C880B990B0E940F2720E030E0D4
:1042900040E151E40E9465269B01AC0166E676E6AA
:1042A00086E69FE30E94F325F70161937193819362
:1042B00091937F010F5F1F4F0330110571F69E012F
:1042C000225D3F4F2E963FAF2EAF2E978E01065C9C
:1042D0001F4FCE0101962C01DE01AA5BBF4F6096F5
:1042E000BFAFAEAF6097FE01BE963F019E012E5D4F
:1042F0003F4F19010E94C815D101CD90DD90ED907E
:10430000FC906C197D098E099F090E940D274B01B5
:104310005C0120E030E04AE754E40E946526F301A6
:10432000C080D180E280F3809B01AC010E94C42751
:1043300023EC35EF4CE950EC0E94C42764966CAF37
:104340007DAF8EAF9FAF6497A7019601C501B40101
:104350000E94C42720E030E04AE754E40E9465262A
:104360009B01AC0164966CAD7DAD8EAD9FAD649745
:104370000E94F4255801D8016D937D938D939C93F1
:10438000139720E030E0A9010E94602687FF30C02B
:10439000F8011082118212821382D2012D913D9177
:1043A0004D915C91C701B6010E94C4276B017C014D
:1043B000F30160837183828393830E94C815D101C6
:1043C0006D937D938D939C9313972AE037ED43E291
:1043D0005CE3C701B6010E94602687FF6EC288E0D9
:1043E0009EEBADE8B0E4F30180839183A283B383B5
:1043F0000C5F1F4F20E030E044E452E4D5016D91A2
:104400007D918D919C910E94C4276B017C014B0191
:104410005C0120E030E0A9010E94BF2787FD09C0B0
:1044200020E030E040E05FE3B401C5010E94F425E4
:1044300008C020E030E040E05FE3B601C7010E9421
:10444000F3250E94D7266096EEADFFAD609761938D
:1044500071936096FFAFEEAF6097F4E02F0E311CC2
:1044600024E0620E711C34E0430E511C2E968EAD7A
:104470009FAD2E972816390609F03CCFA4E0B1E095
:10448000CE018A5B9F4F12962C91129711963C9108
:104490001197FC0161917191CF01AB01440F551F40
:1044A000FB01E40FF51FE85EFC4F4C914083318324
:1044B000228313962DE031E02A173B0721F70E9453
:1044C000D41540E060E080E00E940614FFCE84E155
:1044D00090E090930E0180930D018AE090E090931C
:1044E00003018093020110927901109278018FEFFD
:1044F00090E090930101809300014FEF50E06FEF47
:1045000070E00E9455030E94D41560EB74E080E0D7
:1045100090E00E948E150AEF10E00E941E0F0150DD
:104520001109D9F708EC10E00E94C80E01501109DA
:10453000D9F708EC10E00E94860E01501109D9F756
:1045400008E710E00E940A0E01501109D9F788E22D
:1045500090E090930E0180930D0108E710E00E9417
:104560000D0D01501109D9F70CE310E00E94890CE0
:1045700001501109D9F702E310E00E94190C015013
:104580001109D9F780EA90E090937901809378013E
:10459000309201012092000100E911E00E94B60B67
:1045A00001501109D9F740E050E060E070E080E090
:1045B00090E00E9455030E94D4158FE090E0909304
:1045C0000E0180930D011092790110927801AFEFE6
:1045D000B0E0B0930101A093000104EF11E00E944C
:1045E000570B01501109D9F700E911E00E94F60AB2
:1045F00001501109D9F78CE390E090930E0180935C
:104600000D0184EB90E0909379018093780102E3AF
:1046100010E00E94820A01501109D9F70E94970206
:1046200084E690E090930E0180930D0102E310E088
:104630000E94B50201501109D9F788E290E09093E9
:104640000E0180930D0100E510E00E94440A015024
:104650001109D9F780E590E090930E0180930D0148
:1046600002E310E00E94420201501109D9F740E034
:1046700050E060E070E080E090E00E9455030E940E
:10468000D4158CE390E090930E0180930D018FE59B
:1046900090E0909379018093780106E910E00E9400
:1046A000840901501109D9F706E910E00E940609B2
:1046B00001501109D9F702E310E00E94CB0101502B
:1046C0001109D9F783E290E090930E0180930D01D8
:1046D00084EB90E090937901809378010AE010E0F8
:1046E0000E94870801501109D9F784E690E0909361
:1046F0000E0180930D01109279011092780102E36E
:1047000010E00E94110801501109D9F784E690E0E9
:1047100090930E0180930D0184EB90E090937901CA
:104720008093780108E210E00E94A507015011096A
:10473000D9F740E050E060E070E080E090E00E9457
:1047400055030E94D4150EE110E00E9405070150A8
:104750001109D9F730920E0120920D0104E610E004
:104760000E94350101501109D9F730920E012092B3
:104770000D018FE090E0909303018093020108E720
:1047800010E00E948C0601501109D9F784E690E0F0
:1047900090930E0180930D010EE110E00E9411151F
:1047A00001501109D9F70EE110E00E9404010150F7
:1047B0001109D9F70E94671485E090E090930E01EB
:1047C00080930D0100EB14E00E94D71401501109F1
:1047D000D9F740E050E060E070E08FEF90E00E9499
:1047E00055030E94D41560EB74E080E090E00E94D5
:1047F0008E1540E050E06FEF70E080E090E00E94A6
:1048000055030E94D41560EB74E080E090E00E94B4
:104810008E154FEF50E060E070E080E090E00E9485
:1048200055030E94D41560EB74E080E090E00E9494
:104830008E1540E050E06FEF70E08FEF90E00E9447
:1048400055030E94D41560EB74E080E090E00E9474
:104850008E154FEF50E06FEF70E080E090E00E9427
:1048600055030E94D41560EB74E080E090E00E9454
:104870008E154FEF50E060E070E08FEF90E00E9407
:1048800055030E94D41560EB74E080E090E00E9434
:104890008E150E946A100C9469190C5F1F4F20E05E
:1048A00030E044E452E4F5016081718182819381BA
:1048B0000E94C4274B015C0169CC0C5F1F4F20E0B4
:1048C00030E044E452E4D5016D917D918D919C914D
:1048D0000E94C4274B015C01A3CDE0EBF3E01382FF
:1048E000128288EE93E0A0E0B0E084839583A683F3
:1048F000B7838AE591E09183808385EC90E095878A
:10490000848784EC90E09787868780EC90E0918B99
:10491000808B81EC90E0938B828B82EC90E0958B86
:10492000848B86EC90E0978B868B118E128E138E83
:10493000148EEDE4F4E08FEF8083128211821486EE
:1049400013868FEF9FEFDC0187839087A187B28763
:1049500008958F929F92AF92BF92CF92DF92EF9283
:10496000FF92CF93DF93EC01688179818A819B81EB
:10497000611571058105910521F464E279ED8BE5FE
:1049800097E02DE133EF41E050E00E944B254901D3
:104990005A019B01AC01A7EAB1E40E946A256B01B0
:1049A0007C01ACEEB4EFA50194010E947825DC01F6
:1049B000CB018C0D9D1DAE1DBF1DB7FF03C0019720
:1049C000A109B04888839983AA83BB83BC01CD0128
:1049D0009F77DF91CF91FF90EF90DF90CF90BF90C6
:1049E000AF909F908F9008958F929F92AF92BF92B9
:1049F000CF92DF92EF92FF926091110170911201BC
:104A00008091130190911401611571058105910543
:104A100021F464E279ED8BE597E02DE133EF41E09D
:104A200050E00E944B2549015A019B01AC01A7EAC5
:104A3000B1E40E946A256B017C01ACEEB4EFA501E4
:104A400094010E947825DC01CB018C0D9D1DAE1DCB
:104A5000BF1DB7FF03C00197A109B04880931101A2
:104A600090931201A0931301B0931401BC01CD01E6
:104A70009F77FF90EF90DF90CF90BF90AF909F9087
:104A80008F90089560931101709312018093130128
:104A9000909314010895052E97FB1EF400940E9434
:104AA000622557FD07D00E947D2507FC03D04EF4F8
:104AB0000C94622550954095309521953F4F4F4F6E
:104AC0005F4F089590958095709561957F4F8F4FBA
:104AD0009F4F08950E949F25A59F900DB49F900D14
:104AE000A49F800D911D11240895B7FF0C946A2591
:104AF0000E946A25821B930B0895A1E21A2EAA1B1D
:104B0000BB1BFD010DC0AA1FBB1FEE1FFF1FA2177D
:104B1000B307E407F50720F0A21BB30BE40BF50B7A
:104B2000661F771F881F991F1A9469F76095709503
:104B3000809590959B01AC01BD01CF010895A29F86
:104B4000B001B39FC001A39F700D811D1124911D61
:104B5000B29F700D811D1124911D0895DB018F936B
:104B60009F930E946A25BF91AF91A29F800D911DD6
:104B7000A39F900DB29F900D11240895AA1BBB1BFB
:104B800051E107C0AA1FBB1FA617B70710F0A61B4D
:104B9000B70B881F991F5A95A9F780959095BC016E
:104BA000CD01089597FB072E16F4009407D077FDEA
:104BB00009D00E94BE2507FC05D03EF49095819552
:104BC0009F4F0895709561957F4F0895EE0FFF1FD9
:104BD0000590F491E02D09940E949F25B7FF089558
:104BE000821B930B08955058BB27AA270E940B26BF
:104BF0000C9485270E94772738F00E947E2720F0AA
:104C000039F49F3F19F426F40C9474270EF4E095C0
:104C1000E7FB0C946E27E92F0E94962758F3BA17EA
:104C2000620773078407950720F079F4A6F50C94C2
:104C3000B8270EF4E0950B2EBA2FA02D0B01B90169
:104C400090010C01CA01A0011124FF27591B99F002
:104C5000593F50F4503E68F11A16F040A22F232F0E
:104C6000342F4427585FF3CF469537952795A7955E
:104C7000F0405395C9F77EF41F16BA0B620B730B05
:104C8000840BBAF09150A1F0FF0FBB1F661F771F76
:104C9000881FC2F70EC0BA0F621F731F841F48F42B
:104CA000879577956795B795F7959E3F08F0B0CFB4
:104CB0009395880F08F09927EE0F9795879508959B
:104CC0000E944A2708F481E008950E9479260C94F6
:104CD00085270E947E2758F00E94772740F029F40C
:104CE0005F3F29F00C946E2751110C94B9270C9456
:104CF00074270E94962768F39923B1F3552391F303
:104D0000951B550BBB27AA2762177307840738F03A
:104D10009F5F5F4F220F331F441FAA1FA9F335D097
:104D20000E2E3AF0E0E832D091505040E695001C4B
:104D3000CAF72BD0FE2F29D0660F771F881FBB1F05
:104D4000261737074807AB07B0E809F0BB0B802DE3
:104D5000BF01FF2793585F4F3AF09E3F510578F00F
:104D60000C946E270C94B9275F3FE4F3983ED4F37C
:104D7000869577956795B795F7959F5FC9F7880FE3
:104D8000911D9695879597F90895E1E0660F771F35
:104D9000881FBB1F621773078407BA0720F0621BC6
:104DA000730B840BBA0BEE1F88F7E09508950E94F1
:104DB000DE266894B1110C94B92708950E949E27AD
:104DC00088F09F5798F0B92F9927B751B0F0E1F0CC
:104DD000660F771F881F991F1AF0BA95C9F714C07C
:104DE000B13091F00E94B827B1E008950C94B82733
:104DF000672F782F8827B85F39F0B93FCCF38695B5
:104E000077956795B395D9F73EF490958095709511
:104E100061957F4F8F4F9F4F0895E89409C097FB8E
:104E20003EF490958095709561957F4F8F4F9F4F81
:104E30009923A9F0F92F96E9BB279395F6958795C5
:104E400077956795B795F111F8CFFAF4BB0F11F488
:104E500060FF1BC06F5F7F4F8F4F9F4F16C088232F
:104E600011F096E911C0772321F09EE8872F762F65
:104E700005C0662371F096E8862F70E060E02AF0A6
:104E80009A95660F771F881FDAF7880F9695879592
:104E900097F90895990F0008550FAA0BE0E8FEEF67
:104EA00016161706E807F907C0F012161306E407EE
:104EB000F50798F0621B730B840B950B39F40A26E7
:104EC00061F0232B242B252B21F408950A2609F4C5
:104ED000A140A6958FEF811D811D089597F99F67C9
:104EE00080E870E060E008959FEF80EC0895002472
:104EF0000A941616170618060906089500240A943F
:104F000012161306140605060895092E0394000CC4
:104F100011F4882352F0BB0F40F4BF2B11F460FF53
:104F200004C06F5F7F4F8F4F9F4F089557FD90587C
:104F3000440F551F59F05F3F71F04795880F97FB5D
:104F4000991F61F09F3F79F0879508951216130617
:104F50001406551FF2CF4695F1DF08C01616170646
:104F60001806991FF1CF869571056105089408957B
:104F7000E894BB2766277727CB0197F908950E940D
:104F80004A2708F48FEF08950E94D7270C948527AD
:104F90000E94772738F00E947E2720F0952311F099
:104FA0000C946E270C94742711240C94B9270E943A
:104FB000962770F3959FC1F3950F50E0551F629FA0
:104FC000F001729FBB27F00DB11D639FAA27F00D62
:104FD000B11DAA1F649F6627B00DA11D661F829F89
:104FE0002227B00DA11D621F739FB00DA11D621F6E
:104FF000839FA00D611D221F749F3327A00D611D8B
:10500000231F849F600D211D822F762F6A2F11246C
:105010009F5750409AF0F1F088234AF0EE0FFF1F9F
:10502000BB1F661F771F881F91505040A9F79E3FF6
:10503000510580F00C946E270C94B9275F3FE4F380
:10504000983ED4F3869577956795B795F795E7954C
:105050009F5FC1F7FE2B880F911D9695879597F955
:1050600008959F930E943B280F9007FCEE5F0C94DD
:1050700064280C9474270E949E27D8F3E894E0E0FB
:10508000BB279F57F0F02AED3FE049EC06C0EE0F3A
:10509000BB0F661F771F881F28F0B23A620773079D
:1050A000840728F0B25A620B730B840BE3959A9530
:1050B00072F7803830F49A95BB0F661F771F881FF0
:1050C000D2F790480C947A28EF93E0FF07C0A2EA49
:1050D0002AED3FE049EC5FEB0E940B260E948527FA
:1050E0000F90039401FC9058EEE3F1E00C948628B5
:1050F0009F3F31F0915020F4879577956795B7954C
:10510000880F911D9695879597F908959F938F9392
:105110007F936F93FF93EF939B01AC010E94C42791
:10512000EF91FF910E949A282F913F914F915F91AB
:105130000C94C427DF93CF931F930F93FF92EF92AA
:10514000DF927B018C01689406C0DA2EEF010E9489
:10515000D727FE01E894A591259135914591559168
:10516000A6F3EF010E940B26FE019701A801DA9435
:1051700069F7DF90EF90FF900F911F91CF91DF9132
:10518000089581E090E0F8940C94C628F894FFCF3D
:10519000FF000A00FF0000FFFFFF0000FF140003F4
:1051A0000001000000000000003F113F113F11D935
:1051B00000FD00010100000000FC10B810B610D97D
:1051C00000FD00B3104111020304050607080A0B95
:1051D0000C0D0E0F1011131417191B1C1E21222366
:1051E00024252627282900000000FB0F640F920FBA
:1051F0004810C30FA10FB50F6E6577206D6F646502
:065200003A20000D0A0037
:00000001FF
